{
  "contractName": "payment",
  "abi": [
    {
      "inputs": [],
      "payable": false,
      "stateMutability": "nonpayable",
      "type": "constructor"
    },
    {
      "anonymous": false,
      "inputs": [
        {
          "indexed": false,
          "name": "sender",
          "type": "address"
        },
        {
          "indexed": false,
          "name": "recipient",
          "type": "address"
        },
        {
          "indexed": false,
          "name": "amount",
          "type": "uint256"
        }
      ],
      "name": "transfer",
      "type": "event"
    },
    {
      "constant": false,
      "inputs": [
        {
          "name": "self",
          "type": "address"
        },
        {
          "name": "amount",
          "type": "uint256"
        }
      ],
      "name": "buyCurrency",
      "outputs": [],
      "payable": false,
      "stateMutability": "nonpayable",
      "type": "function"
    },
    {
      "constant": false,
      "inputs": [
        {
          "name": "recipient",
          "type": "address"
        },
        {
          "name": "amount",
          "type": "uint256"
        }
      ],
      "name": "moneyTransfer",
      "outputs": [
        {
          "name": "",
          "type": "bool"
        }
      ],
      "payable": false,
      "stateMutability": "nonpayable",
      "type": "function"
    },
    {
      "constant": true,
      "inputs": [
        {
          "name": "account",
          "type": "address"
        }
      ],
      "name": "checkBalance",
      "outputs": [
        {
          "name": "",
          "type": "uint256"
        }
      ],
      "payable": false,
      "stateMutability": "view",
      "type": "function"
    }
  ],
  "bytecode": "0x608060405234801561001057600080fd5b50336000806101000a81548173ffffffffffffffffffffffffffffffffffffffff021916908373ffffffffffffffffffffffffffffffffffffffff16021790555061047c806100606000396000f300608060405260043610610057576000357c0100000000000000000000000000000000000000000000000000000000900463ffffffff168063045756491461005c5780635f515226146100c1578063b87457ca14610118575b600080fd5b34801561006857600080fd5b506100a7600480360381019080803573ffffffffffffffffffffffffffffffffffffffff16906020019092919080359060200190929190505050610165565b604051808215151515815260200191505060405180910390f35b3480156100cd57600080fd5b50610102600480360381019080803573ffffffffffffffffffffffffffffffffffffffff16906020019092919050505061035a565b6040518082815260200191505060405180910390f35b34801561012457600080fd5b50610163600480360381019080803573ffffffffffffffffffffffffffffffffffffffff169060200190929190803590602001909291905050506103a3565b005b600081600160008060009054906101000a900473ffffffffffffffffffffffffffffffffffffffff1673ffffffffffffffffffffffffffffffffffffffff1673ffffffffffffffffffffffffffffffffffffffff1681526020019081526020016000205410156101d85760009050610354565b81600160008060009054906101000a900473ffffffffffffffffffffffffffffffffffffffff1673ffffffffffffffffffffffffffffffffffffffff1673ffffffffffffffffffffffffffffffffffffffff1681526020019081526020016000206000828254039250508190555081600160008573ffffffffffffffffffffffffffffffffffffffff1673ffffffffffffffffffffffffffffffffffffffff168152602001908152602001600020600082825401925050819055507fbeabacc8ffedac16e9a60acdb2ca743d80c2ebb44977a93fa8e483c74d2b35a86000809054906101000a900473ffffffffffffffffffffffffffffffffffffffff168484604051808473ffffffffffffffffffffffffffffffffffffffff1673ffffffffffffffffffffffffffffffffffffffff1681526020018373ffffffffffffffffffffffffffffffffffffffff1673ffffffffffffffffffffffffffffffffffffffff168152602001828152602001935050505060405180910390a15b92915050565b6000600160008373ffffffffffffffffffffffffffffffffffffffff1673ffffffffffffffffffffffffffffffffffffffff168152602001908152602001600020549050919050565b6000809054906101000a900473ffffffffffffffffffffffffffffffffffffffff1673ffffffffffffffffffffffffffffffffffffffff168273ffffffffffffffffffffffffffffffffffffffff161415156103fe5761044c565b80600160008473ffffffffffffffffffffffffffffffffffffffff1673ffffffffffffffffffffffffffffffffffffffff168152602001908152602001600020600082825401925050819055505b50505600a165627a7a72305820f7d0526456ed1b2f8ca1d3e15ab6640104914e5c7c24a214cf0485c22c158e5a0029",
  "source": "pragma solidity >=0.4.22 <0.6.0;//any version of comiler between 0.4.22 and 0.6.0\ncontract payment{\n    //declaring variables for balance tracking and admin address\n    \n    address admin;\n    mapping (address=> uint) balances;\n    event transfer(address sender,address recipient,uint amount);\n    \n    //constructor call\n    constructor() public{\n        //assigning admin address to be the sender/initiator of the contract\n        \n        admin=msg.sender;\n    }\n    //buying more currency\n    function buyCurrency(address self,uint amount) public{\n    \n    //check if the address is of the admin, if not, function is discarded\n    if(self!=admin)return;\n    \n    //getting currency and adding to balances of admin\n    balances[self]+=amount;\n    }\n    \n    //for the actual transfer of money to address secified\n    function moneyTransfer(address recipient, uint amount) public returns (bool){\n        //check if admin has sufficient balance\n        if(balances[admin]<amount) return false;\n        balances[admin]-=amount;\n        balances[recipient]+=amount;\n        emit transfer(admin, recipient, amount);\n    }\n    //to check balance in particular account address\n    function checkBalance(address account) public view returns (uint){\n        return balances[account];\n    }\n}",
  "sourcePath": "C:/Users/ssrinivas35/Documents/Training/Project/Project-2/Blockchain-artifacts/contracts/paymentContract.sol",
  "compiler": {
    "name": "solc",
    "version": "0.4.25+commit.59dbf8f1.Emscripten.clang"
  },
  "schemaVersion": "3.0.19",
  "updatedAt": "2019-11-25T16:03:03.569Z",
  "devdoc": {
    "methods": {}
  },
  "userdoc": {
    "methods": {}
  }
}